:1000000000800020BD0100003D1A0000011A000020
:10001000011A0000011A0000011A0000011A000074
:10002000011A0000011A0000011A00003D1A000028
:100030003D1A0000011A00003D1A0000F1190000ED
:100040003D1A00003D1A00003D1A00003D1A000054
:100050003D1A00003D1A00003D1A00003D1A000044
:100060003D1A00003D1A00003D1A00003D1A000034
:100070003D1A00003D1A00003D1A00003D1A000024
:100080003D1A00003D1A00003D1A00003D1A000014
:100090003D1A00003D1A00003D1A00003D1A000004
:1000A0003D1A00003D1A00003D1A00003D1A0000F4
:1000B0003D1A00003D1A00003D1A00003D1A0000E4
:1000C0003D1A00003D1A00003D1A00003D1A0000D4
:1000D0003D1A00003D1A00003D1A00003D1A0000C4
:1000E0003D1A00003D1A00003D1A00003D1A0000B4
:1000F0003D1A00006D2100003D1A0000D5280000C7
:100100003D1A0000592E00003D1A00003D1A000063
:100110003D1A00003D1A00003D1A00003D1A000083
:100120003D1A00003D1A00003D1A00003D1A000073
:100130003D1A00003D1A00003D1A00003D1A000063
:100140003D1A00003D1A00003D1A00003D1A000053
:100150003D1A00003D1A00003D1A00003D1A000043
:100160003D1A0000F50B00003D1A00003D1A00008A
:100170003D1A00003D1A00003D1A00003D1A000023
:100180003D1A00003D1A00003D1A00003D1A000013
:100190003D1A00003D1A00003D1A00003D1A000003
:1001A0003D1A00003D1A00003D1A00003D1A0000F3
:1001B0003D1A00003D1A00003D1A0000564B4CF25B
:1001C000205210B51A804DF628121A8000BF00BFC9
:1001D00001F038FC514B4FF010621A60504A9A609F
:1001E000504ADA60504A136813F4807304D14F49BF
:1001F0000B604FF4A85313604D4B1A78110703D5C9
:100200001A7842F008021A704A4B4B492A221A7097
:100210004A4A4B4B8B4204D252F8040F43F8040B6A
:10022000F8E7484B484900228B4202D243F8042B9E
:10023000FAE74649464A002352F8230041F82300D2
:1002400001336F2BF8D1434B434A802103F8011B44
:100250009342FBD1414B3D4A1A60414B8A221A70AE
:10026000A3F5805324225A70A0221A709A7992071B
:10027000FCD59A79D406FCD43A4A937903F00C035E
:10028000082B384BF9D103221A7140225A719A79FE
:100290009006FCD5334A9179324B4906FBD5324A58
:1002A000324911600221516020221A709A7902F0BD
:1002B0000C020C2AFAD12E4B2E4A1A602E4B4BF60A
:1002C0007F321A6000225A60072243F8042C2B4A1E
:1002D000C3F80C2D62B600F04BFB144B1B68DA0719
:1002E00005D5274800F096FA264B274A1A60274B77
:1002F0001B785B0609D5234C234B22689A4204D114
:100300001F4800F087FA0023236003F0B1FC01F0DE
:100310009FFB01F0EFF9FEE70E200540308004401E
:10032000823F04000100002B10D0034014D0034092
:1003300002D0074000E007408091FF1FE4860000E4
:100340002087FF1F8091FF1F4C95FF1F0082FF1F1A
:100350000000000000E400E05FE400E008ED00E0E1
:100360000050064000400640448004400000131145
:1003700004800440C010050014E000E000002020CC
:10038000491CE6591CE00340A5C3945A00F00740FD
:10039000FFFFFFFFFFFFFFFFFFFFFFFFFFFFFFFF6D
:1003A000FFFFFFFFFFFFFFFFFFFFFFFFFFFFFFFF5D
:1003B000FFFFFFFFFFFFFFFFFFFFFFFFFFFFFFFF4D
:1003C000FFFFFFFFFFFFFFFFFFFFFFFFFFFFFFFF3D
:1003D000FFFFFFFFFFFFFFFFFFFFFFFFFFFFFFFF2D
:1003E000FFFFFFFFFFFFFFFFFFFFFFFFFFFFFFFF1D
:1003F000FFFFFFFFFFFFFFFFFFFFFFFFFFFFFFFF0D
:10040000FFFFFFFFFFFFFFFFFFFFFFFFDEF9FFFF23
:1004100010B5054C237833B9044B13B10448AFF33E
:1004200000800123237010BD8091FF1F0000000099
:10043000E0860000084B10B51BB108490848AFF32F
:1004400000800848036803B910BD074B002BFBD0A0
:10045000BDE81040184700BF000000008491FF1F56
:10046000E08600008091FF1F000000002DE9F041B0
:100470008EB0DFF83C81404600F0C6F83F4E304673
:1004800000F0EAF83E4F384600F020F93D4C204697
:1004900000F04AF94FF4FA6000F054FA00F0A8F8BE
:1004A000394D02463949284601F016F998F80130CD
:1004B00098F8002098F80310019198F80210009124
:1004C0003349284601F008F900F0AAF802463149FC
:1004D000284601F001F97378327871790391317906
:1004E0000291F1780191B17800912B49284601F0F1
:1004F000F3F800F0C9F802462849284601F0ECF864
:100500007B683A68F9680191B968009124492846E6
:1005100001F0E2F800F0F0F802462249284601F026
:10052000DBF863782278E17B0D91A17B0C91617BF4
:100530000B91217B0A91E17A0991A17A0891617A64
:100540000791217A0691E1790591A1790491617968
:10055000039121790291E1780191A17800911249EA
:10056000284601F0B9F800F015F902460F4928466F
:1005700001F0B2F80EB0BDE8F08100BFAC91FF1FF2
:100580009C91FF1FB491FF1F2C93FF1F587F000009
:10059000707F00009C7F0000B87F0000EC7F0000AF
:1005A000048000003C80000064800000C8800000DF
:1005B000C491FF1F704700BF72B60A4B70221A70B9
:1005C0004121094A11700F21013A117080221A70DD
:1005D0001A46137813F0800FFBD0044B186862B6EC
:1005E000704700BF000002400700024008000240C0
:1005F00008B5FFF7E1FF034B98429CBF00EB80007A
:10060000400008BD7F96980010B50446FFF7D4FF60
:10061000030E2370030C6370030AA370E07010BD17
:1006200010B584B003A8FFF7EFFF9DF80D309DF8DB
:100630000C20074C9DF80F1001919DF80E100091B1
:100640000449204604F0CAF8204604B010BD00BF9B
:10065000C891FF1FEC80000010B582B0044601A8CD
:10066000FFF7D2FF04232370E9236370E523A3700F
:100670009DF80530E3709DF8063023719DF8073032
:10068000637102B010BD00BF10B586B004A8FFF7BB
:10069000E3FF9DF811309DF810200A4C9DF81510CD
:1006A00003919DF8141002919DF8131001919DF88B
:1006B000121000910449204604F090F8204606B03C
:1006C00010BD00BFD491FF1F00810000064B1B68C6
:1006D0000360064B1B684360054B1B688360054B3A
:1006E0001B68C360704700BF5480044058800440BA
:1006F0005C8004406080044010B586B002A8FFF71B
:10070000E5FF074C059B0193049B0093039B029A12
:100710000449204604F062F8204606B010BD00BF30
:10072000E891FF1F2081000010B582B004466846A2
:10073000FFF792FF154BDA7822705A8862701A68B8
:10074000120AA2701B68E370114BDA7822715A8882
:1007500062714022A2711A68120AE271802222722A
:100760001B6863729DF80030A3729DF80130E3723C
:100770009DF8023023739DF8033063739DF80430B5
:10078000A3739DF80530E37302B010BD5C80044094
:100790006080044010B592B00EA8FFF7C5FF9DF829
:1007A00039309DF83820194C9DF847100D919DF86F
:1007B00046100C919DF845100B919DF844100A913C
:1007C0009DF8431009919DF8421008919DF8411041
:1007D00007919DF8401006919DF83F1005919DF8F6
:1007E0003E1004919DF83D1003919DF83C1002913C
:1007F0009DF83B1001919DF83A1000910449204664
:1008000003F0ECFF204612B010BD00BF0C92FF1F9A
:1008100038810000044B00221A6004490A60044A2F
:10082000106010221A60704714D0034004D00340B7
:1008300000D0034021281ED80F4B53F8303093F8D6
:10084000802212F0FF0F08D019B1012283F8802016
:100850007047012283F800217047074B03EBC0006B
:10086000436821B11A6842F003021A6070471A689F
:1008700022F002021A6070478081000021283AD8D5
:100880001D4B03EBC0035B68012919D0042925D057
:10089000194A52F83020002082F8800219B94FF42A
:1008A00080721A607047022903D140F203121A6065
:1008B000704703290CBF4FF4817200221A60704701
:1008C0000D4A52F83020012182F880124FF4A272B2
:1008D0001A601A6822F020021A607047064A52F81D
:1008E0003020012182F880124FF4A2721A601A6837
:1008F00042F020021A6070478081000072B60D4BF2
:100900001B680D4A10680D4A126862B612F0806FBB
:1009100002D0322B88BF0130C3F53B437F33084AF6
:10092000A2FB03234FF47A7202FB00F000EB53109A
:10093000704700BF18E000E03492FF1F04ED00E0B4
:10094000ABAAAAAA38B50546FFF7D8FF044625B9D1
:1009500038BD013D0AD004F57A74FFF7CFFF001BC4
:10096000B0F57A7FF5D200F0FDFEF6E738BD00BFA6
:1009700010B5274B4FF400021A604FF080721A60D6
:100980004FF000721A604FF080621A604FF0006200
:100990001A6000201F4B18604BF6FF71043319607A
:1009A00028231D4A1360083213600832136008328E
:1009B0001360083213600832136008321360083283
:1009C00013600922154C226004F580540434206021
:1009D000043421600434236008342360143C226012
:1009E00004F5FE24043420600D4801600D490B60BD
:1009F00008310B600C4B1A6000F070FF3220FFF7DB
:100A0000A1FF00F07DFC4FF4AF70FFF79BFF10BD1E
:100A100008E100E0048003400C80034000800340B4
:100A200008800B400C800B4000800B4010B40E4B34
:100A30001B7843F002040D4A02EBC40250600C4ADA
:100A40001278002A14BFC820882040EA01410748D4
:100A500040F8341082F0010205490A7083F0010366
:100A6000014A137010BC7047A092FF1F0080FF1F47
:100A70001993FF1F431E032B11D872B60B4A52F86D
:100A8000230080B110B4416842F82310084931F8BE
:100A900013200488121B21F8132062B601E0002005
:100AA000704710BC704762B6704700BF9092FF1F3E
:100AB0003495FF1F013803280DD872B6074B53F841
:100AC00020302BB1002001305B68002BFBD100E00F
:100AD000002062B670470020704700BFE492FF1FFD
:100AE00038B572B61B4901231B4C11F8012B12F0CB
:100AF000080F24D09A0054F832506DB9164B03EB0E
:100B0000C20108304860154943F83210144A13787E
:100B1000013B137062B638BD42F0010254F8325006
:100B20006DB90D4B03EBC201083048600D4943F825
:100B300032100B4A1378013B137062B638BD013393
:100B4000052BD2D162B60022054B1A7000F03EFC94
:100B500038BD00BFB48200000080FF1F8800400045
:100B60000E93FF1FC8004000431E032B39D810B45A
:100B7000400140F010001B4A104472B61A4AD25C81
:100B8000032A0BD8DFE802F01B040207052217E056
:100B90000830022214E00830042211E0134A52F80F
:100BA00023201AB9114A42F8231003E0104A52F8E0
:100BB000232051600E4A42F8231062B610E003224F
:100BC000094CE25401F10803436000F00803002BD4
:100BD00014BFC82388230A8843EA0243036062B62D
:100BE00010BC70470080FF1F4C92FF1FE492FF1F54
:100BF000F492FF1F2DE9F04F85B0AA4CDFF8F4A264
:100C0000DFF8F4B22578EDB215F0040F1DD0A64B35
:100C10001B7813F0FF0F16D0A44B1A7802F0FF03D5
:100C20002AB1013BDBB2A14A137003B900BEA04B4D
:100C30001A7802F0FF0332B1013BDBB29C4A137019
:100C40000BB900F01DFD0423237015F0080F00F010
:100C5000ED829AF80030DBB21D0940F02882954EF3
:100C60009D0806EBC5035A6856F83530C3F3830375
:100C7000013B0C2B00F21782DFE813F0D201D20106
:100C8000150215021502150215021502EF011502D3
:100C9000150215020D00884913680B6052684A60FE
:100CA000864A46F83520002285490A6081490A6152
:100CB0008A610121834A11709BB240F281629342A2
:100CC00018D8B3F5D06F2ED2B3F5817F00F02B8109
:100CD00006D8802B00F0D780822B00F0DA806DE1FF
:100CE00040F20232934200F03381B3F5A06F00F07E
:100CF000698163E142F22102934200F08D8107D8BD
:100D0000B3F5086F00F0B980B3F5106F11D055E15D
:100D100042F22122934200F0488142F22132934272
:100D200000F050814AE1684B5D68002D40F025815C
:100D300037E1614B9A785C4B1A705E4D05F1800685
:100D40002B6A13F0800F03D0686A083800F03EFB6E
:100D50000835B542F4D15D4B0093DFF8A0815C4BC0
:100D60000193DFF89C9100273E46009B0293186890
:100D700028B1456800F02AFB2846002DF9D1029BD6
:100D80001E600297534B43F82760CDF80C80D8F8CB
:100D9000000028B1456800F019FB2846002DF9D164
:100DA000039B1E60019B43F8046B01934A4B029A1C
:100DB00023F8126099F80030023B032B09D8DFE8D2
:100DC00003F00205020589F8006002E0012389F8BA
:100DD00000300137009B0433009308F1040809F147
:100DE0000109042FC1D100223C4B1A7001253C4E51
:100DF000DFF810912F4F904619F8013B06F8043B9D
:100E000013F0080F2BD000F0C1FA034640B1AA003E
:100E100007EB451108334B60324947F8321006E0C2
:100E2000AB0047F833802D4A13780133137000F07C
:100E3000ADFA024650B1AB0043F0010307EBC3012A
:100E400008324A601D4A47F8332008E0AB0043F0FF
:100E5000010347F83380214A137801331370AB0044
:100E600043F0020247F8328043F0030347F833802F
:100E700001351D4B9E42BFD117E20B4B1B781B4D1A
:100E80002B700123A3E0194D00232B706B700223FC
:100E90009DE0094B9B88042B36D90F22144B1A7006
:100EA000BAE000BF802007401893FF1FA192FF1FE8
:100EB0001A93FF1F0080FF1F0493FF1FC80040000C
:100EC0003892FF1F1993FF1FB88200009092FF1FF6
:100ED000F492FF1F3C92FF1F3495FF1F0E93FF1FDC
:100EE000C420074088004000D42007401093FF1F13
:100EF000C02007409020074094200740E492FF1F45
:100F00004C92FF1FB48200009D4A00211170517065
:100F10009C4A12F8233013F0020F56D0984D01234B
:100F20002B70022353E0984B9B8803F07F03042B24
:100F300002DC954A52881AB10F22924B1A706BE06C
:100F4000904911F8232022F0020201F82320ACE19D
:100F50008D4B9B8803F07F03042B02DC8A4A528866
:100F60001AB10F22874B1A7056E0864911F82320D8
:100F700042F0020201F8232097E1834B59889888B8
:100F8000824B1A888A4208D15A88824205D1090ABE
:100F900003290CBF2B781B8919E00C335D68002DE9
:100FA000EFD10F22774B1A7036E0794B1A68794BE4
:100FB0001A60754B9A78784B1A7076E10F22714B54
:100FC0001A7029E000231D4601E002236C4D6E4A91
:100FD000D6889E4228BF1E463746402E28BF40274F
:100FE00039462846FFF722FD3D44F61B03D13F2F2B
:100FF00000F2608110E03746402E28BF4027394676
:101000002846FFF713FD3D44F61B01D13F2F03D9BE
:10101000624B1D60624B1E8001238BF8003042E062
:10102000594B198842F22103994212D15D4BD01DD0
:1010300012F8011B03F8011F8242F9D15A4B1B68B9
:10104000862B02D10F22594B1A7000210846FFF758
:10105000EDFC574B46F8353025E0504B1F68BFB1CB
:10106000DFF83C81B8F800502E46402D28BF4026BE
:1010700031463846FFF7DAFCAD1BADB2A8F8005098
:101080000DB9402E01D13E4400E00026434B1E60C6
:101090003D4B1B88B3F5A06F05D13B4B00225A7026
:1010A0009B78444A137001238BF80030BBE0424E1A
:1010B0009F0806EBC708D8F80420A2F10800013DFC
:1010C000EDB213F0080F47D000F080F93B4B53F816
:1010D00025304BB35968394A42F8251003F108020C
:1010E000C8F80420364A525D032A12D8DFE802F01D
:1010F00002060A0E0321324A51550AE00221304A03
:10110000515506E005212E4A515502E004212C4A92
:10111000515518F0080F14BFC82288221B8842EAD4
:10112000034346F837307EE0254B5B5D032B0BD83D
:10113000DFE803F0797902060022214B5A5572E06C
:1011400001221F4B5A556EE018F0080F14BF0322FE
:1011500002221B4B5A5566E056F837301B0C22F81A
:10116000083C002B57D0002322F8063C42F8043CF0
:10117000144B53F825303BBB124B43F8250027E0B6
:101180001093FF1FC02007400493FF1FB882000088
:101190003492FF1F4495FF1F2893FF1F3892FF1FB3
:1011A0000C93FF1F3B95FF1F3C95FF1FA192FF1F54
:1011B000C8004000982007400080FF1FE492FF1FF6
:1011C0004C92FF1F9092FF1F3E4B53F82530586002
:1011D0003C4B43F825003C4931F8150032F8083CF7
:1011E000034421F8153000F0D1F8034658B1083314
:1011F000C8F8043018F0080F344A354B08BF1346BE
:1012000046F837300FE0002346F83730314A13787C
:101210000133137007E018F0080F2C4A2C4B08BF5D
:10122000134646F8373008232370EBE415F0010F1E
:1012300021D0294902230B700022284B1A70284B19
:1012400022481860274C5C6098602748D8601A6173
:101250009A610D20254B1870FF232548037008382C
:10126000037018300270234A13709F22224B1A70A9
:1012700001230B7023E015F0800F05D00D221B4BCE
:101280001A708022403B1A7015F0020F06D0184ADF
:101290001378DBB213700222184B1A7015F0100F7E
:1012A0000DD01022154B1A7009E000210846FFF7F7
:1012B000BDFBB1E600212846FFF7B8FBACE605B060
:1012C000BDE8F08F3C92FF1F3495FF1F880040005F
:1012D000C80040000E93FF1F94200740A092FF1FFC
:1012E0000080FF1F5092FF1FA492FF1FC0200740E5
:1012F000882007408C20074084200740802007403A
:1013000008B501F01BFE1C4800F1880103460022CD
:101310001A605A6008338B42FAD1184A136843F4B2
:1013200080231360C0F30722154B1A70C0F30742E5
:1013300014331A70000E04331870FF23114A13700F
:1013400008321370783A137001238432137000212D
:101350006C3211707C3A137070220B4B1A704FF480
:101360000072A3F241331A60102203F1C04303F567
:10137000C8231A7008BD00BF0080FF1F34800440DE
:101380009C2007408020074049E400E072B60D4BE6
:101390001A68B2FA82F30B2B02D962B600207047AA
:1013A0004FF00041D94022EA010206490A6062B6C4
:1013B000054903EBC303DB00C8180022CA50426092
:1013C000704700BF2087FF1FBC83FF1F08B50F4B6E
:1013D000C31A0F4AA2FB03231B090B2B14D80D4A77
:1013E00012783AB10C4A127812F0FF0F02D0FFF7D0
:1013F00077FB08BD72B609494FF0004222FA03F3A9
:101400000A681A430A6062B608BD00BFBC83FF1FAA
:10141000398EE3380E93FF1F1893FF1F2087FF1F9D
:1014200010B5134B1B6853B9124B1B7813F0FF0F09
:1014300018D00320FFF71EFB0D4B1860A8B10C4B12
:10144000186843885A1C03441C7A03889A4206D3BE
:10145000FFF7BCFF0022064B1A60204610BD4280F9
:10146000204610BD4FF0FF3010BD4FF0FF3010BDD3
:101470002493FF1F1893FF1F08B50D4B1B6883B9FA
:101480000C4B1B7813F0FF0F08D00320FFF7F2FA84
:10149000074B186028B94FF0FF3008BD4FF0FF3000
:1014A00008BD034B1A6853881344187A08BD00BF5F
:1014B0002493FF1F1893FF1F044B9888044B1B684D
:1014C0001BB11A885B88D31A184470473495FF1FE4
:1014D0002493FF1F0B4B1B7813F0FF0F11D010B597
:1014E000094B186820B1FFF771FF0022064B1A6004
:1014F00003242046FFF7BEFA10B1FFF767FFF8E7B5
:1015000010BD70471893FF1F2493FF1F2DE9F84F5C
:101510000122374B1A708A46002963D004460D46D3
:10152000344FDFF8DC809946334E3B6883BB98F834
:10153000003013F0FF0F06D100222D4B1A704FF030
:10154000FF30BDE8F88F47F2095B0420FFF7B2FADD
:10155000072809D8012389F80030FFF717FF386002
:10156000B0B9002389F80030BBF1010B01D033780A
:1015700033B10122204B1A704FF0FF30BDE8F88FD5
:1015800000F0F0F898F8003013F0FF0FDDD1D3E74A
:101590000023337039684A88C2F14000A84228BF4E
:1015A000284601F1080302EB000EA1F802E02D1A13
:1015B00048B1013A1344204414F8012B03F8012FD9
:1015C000A042F9D104464B883F2B06D940230B801B
:1015D0000420FFF7C9FA00233B600522074B1A706D
:1015E000002DA2D10022024B1A705046BDE8F88FA0
:1015F0001B93FF1F1C93FF1F2093FF1F1A93FF1FB6
:101600001893FF1F00B583B002AB03F8010D012151
:101610001846FFF77BFF03B05DF804FB144B1B7803
:1016200013F0FF0F23D010B50122124B1A70124B8A
:10163000196851B10024114B1C704B880B80042099
:10164000FFF792FA0C4B1C600DE0FFF79FFE01467E
:1016500030B10022094B1A700420FFF785FA02E02E
:101660000122064B1A700022024B1A7010BD7047FF
:101670001893FF1F1B93FF1F1C93FF1F1A93FF1F3D
:1016800008B50E4B1B7813F0FF0F16D10C4B1968E1
:1016900041B14B880B800420FFF766FA0022084B0B
:1016A0001A6008BDFFF772FE014618B10420FFF76B
:1016B0005BFA08BD0122034B1A7008BD1B93FF1F84
:1016C0001C93FF1F1A93FF1F10B5144603685B6835
:1016D0009847204610BD00BF0EB400B582B003AAE3
:1016E00052F8041B019204F097FC02B05DF804EB81
:1016F00003B0704708B5FEF7B9FEFEF75BFF00F0D8
:1017000031F8FAE708B5FFF7E5FE08BD08B5FFF7C1
:1017100085FF08BD08B5FFF7AFFE08BD08B5FFF7A8
:101720007FFE08BD08B5FFF7C7FE08BD08B508462F
:101730001146FFF7EBFE08BD08B50846FFF762FF4C
:1017400008BD00BF704700BF044B00221A714FF460
:101750007A7199601A73024A1A6070472C93FF1FBE
:101760009882000008B50F4B1B78CBB901220D4BB6
:101770001A70FFF7A1FE08B1FFF7E4FF00F06CFC60
:1017800008B101F0B3FC01F01BF808B101F050FD05
:1017900001F0ECFA08B101F0EDFD0022014B1A70E6
:1017A00008BD00BF3C93FF1F844641EA000313F0CD
:1017B00003036DD1403A41D351F8043B40F8043B58
:1017C00051F8043B40F8043B51F8043B40F8043B1B
:1017D00051F8043B40F8043B51F8043B40F8043B0B
:1017E00051F8043B40F8043B51F8043B40F8043BFB
:1017F00051F8043B40F8043B51F8043B40F8043BEB
:1018000051F8043B40F8043B51F8043B40F8043BDA
:1018100051F8043B40F8043B51F8043B40F8043BCA
:1018200051F8043B40F8043B51F8043B40F8043BBA
:1018300051F8043B40F8043B403ABDD2303211D35A
:1018400051F8043B40F8043B51F8043B40F8043B9A
:1018500051F8043B40F8043B51F8043B40F8043B8A
:10186000103AEDD20C3205D351F8043B40F8043B5A
:10187000043AF9D2043208D0D2071CBF11F8013B58
:1018800000F8013B01D30B8803806046704700BF1E
:10189000082A13D38B078DD010F003038AD0C3F12D
:1018A0000403D21ADB071CBF11F8013B00F8013B0F
:1018B00080D331F8023B20F8023B7BE7043AD9D3CE
:1018C000013A11F8013B00F8013BF9D20B780370A3
:1018D0004B7843708B7883706046704760223A4B38
:1018E0001A70E12201331A70384B1B78082B10D183
:1018F000012203F1804303F56C331A60132334494A
:101900000B6001F5FF2101F2FC710A60314A13609E
:101910001FE00A2B0DD139222F4B1A6013232C49BB
:101920000B6001F5FF2101F2FC710A60294A136086
:101930000FE00C2B0CBF35223D22274B1A601223DF
:1019400023490B6001F5FF2101F2FC710A60214A75
:101950001360224B1B7833B10123214A136002F537
:101960000022136005E000231D4A136002F50022E7
:1019700013601C4B1B78012B06D880231A4A136076
:1019800002F5002213601AE0042B06D88423164ABD
:10199000136002F50022136011E0082B06D885239E
:1019A000114A136002F50022136008E0102B94BF67
:1019B000862387230C4A136002F50022136001225C
:1019C0000A4B1A70704700BF004007402487FF1F72
:1019D0000CB003400CB00B4008B003403E93FF1F17
:1019E00020B003402587FF1F24B003403D93FF1F15
:1019F000024A136801331360704700BF3492FF1F1F
:101A000008B50D4C236813F4802F01D0FFF7F2F8CE
:101A1000236813F4806F01D000F0A8FB236813F44F
:101A2000006F01D000F056FF236813F4805FE9D007
:101A300001F012FAE6E700BF3480044008B5FFF772
:101A4000DFFF00BF1022014B1A80704700200540C5
:101A5000704700BF08B50B4B1B6880B16A46181869
:101A6000A2F58052904206D302F0FCF80C230360EA
:101A70004FF0FF3008BD034A1060184608BD1846F5
:101A800008BD00BF2887FF1FEFF31383ABB9EFF347
:101A90001083ABB9EFF3058323B10F2B05D9094AA6
:101AA000985C03E04FF4807000E00020EFF31183B6
:101AB0003BB1984228BF184670474FF0FF3070473F
:101AC00000207047F0E300E0F0B44D1E2E460024E5
:101AD000B0FBF2F302FB13032746092B94BF30330C
:101AE0003733DBB206F8013FB0FBF2F008B1013446
:101AF000EEE70B1900225A7094420BDD1A460023C0
:101B000015F8010F14782C7002F801090133F81A46
:101B10008342F5DB0846F0BC704700BF254A1368D6
:101B200043F4806313600023234A1370234A137025
:101B3000234A1370234A1370234A1370234B1B78D4
:101B400013B1152B05D008E040F21332204B1A6078
:101B500003E040F213321F4B1A601F4B1B78012B1E
:101B600002D0052B05D008E04FF451721B4B1A60D0
:101B700003E04FF451721A4B1A60C0F34432194B10
:101B80001A70C0F347125A7000F01F0098720422B6
:101B90009A700221D9745A7588221A743C22DA701C
:101BA0004022114B1A704FF40052A3F229331A60ED
:101BB000704700BF34800440CC93FF1F4593FF1F44
:101BC000D493FF1FCD93FF1F4493FF1F8893FF1FE4
:101BD00040A0044018C004402C87FF1F44A00440CC
:101BE0001CC0044000A006402DE400E0154B9B788B
:101BF00003F0EC0200F00303134310F0040F18BFCE
:101C000043F010030F4A937000F00F03042B03D12D
:101C1000937943F0400393710A4B5B7903F0EF0330
:101C200010F0100F18BF43F01003064A5371937958
:101C300003F0EF0310F0200F18BF43F01003014A28
:101C40009371704700A00640224B1B6813F4806F0D
:101C50003FD010B5204B1B7813F0FF0F06D01E4C61
:101C6000FFF780FD237813F0FF0FF9D14FF40052F6
:101C70001A4B1A6000221A4BDA701A4B1B7813B1F8
:101C8000152B05D008E040F20312174B1A6003E051
:101C900040F20312154B1A60154B1B7803F07F03BB
:101CA000012B02D0052B05D008E040F20312114BA6
:101CB0001A6003E040F203120F4B1A6000230F4A30
:101CC00013700F4A13700F4B1B680BB101221A706F
:101CD00010BD7047348004404493FF1F84E100E04E
:101CE00000A006408893FF1F40A0044018C0044095
:101CF0002C87FF1F44A004401CC00440CC93FF1F4E
:101D00004593FF1F4093FF1F10B50446094A1378FF
:101D100013F0FF0FFBD101212046FEF7AFFD00219C
:101D20002046FEF787FD044B53F83420034B1A601E
:101D300010BD00BF4493FF1F80810000D093FF1FA0
:101D400010B40C4609B140F08000174B1B78984244
:101D500028D0164A126812F4806F21D003F07F0356
:101D6000012B02D0052B04D006E00022104B1A6094
:101D700002E000220F4B1A60002C14BF60234423A2
:101D800000F07F02012A02D0052A05D008E043F4C2
:101D90004073074A136003E043F44073054A13603D
:101DA000014B187010BC70472C87FF1F3480044013
:101DB00044A004401CC00440114B1B7883421ED039
:101DC000104A126812F4806F17D013B1152B04D08B
:101DD00006E000220C4B1A6002E000220B4B1A6056
:101DE00010B1152805D008E040F21332064B1A60F6
:101DF00003E040F21332054B1A60014B1870704734
:101E00008893FF1F3480044040A0044018C0044061
:101E10000D4B1B6813F4806F13D021280DD810B51B
:101E20000A4C0B4B53F8303023600121FEF726FD9E
:101E3000236800221A70012010BD0020034B186097
:101E400070470020704700BF348004404093FF1F5C
:101E500080810000114B1B6813F4806F1BD0122887
:101E600004D140F202320E4B1A600DE0142804D166
:101E700040F202320B4B1A6006E00B4A537B03F030
:101E8000FE03537300207047074A537B43F001035E
:101E90005373012070470020704700BF3480044016
:101EA0000CA0044014C0044000A00640214B1B6855
:101EB00013F4806F3CD02DE9F0411F4B1B680BB130
:101EC00001221A7007461D4B1C780134402C28BF94
:101ED00000241B4D1B4EDFF8708017E0FFF7D4FD88
:101EE00040280FDC337913F0800F0FD02B780133AB
:101EF000402B28BF002318F80320D2B2F271DBB2C6
:101F00002B7003E0FF2801DDFFF72CFC2B78DBB200
:101F10009C42E3D0FFB20C4B1F5501220B4B1A70B1
:101F2000E4B2064B1C70BC22064BDA70BDE8F081AF
:101F3000704700BF34800440D093FF1FD493FF1F2D
:101F4000CD93FF1F00A006404893FF1F4493FF1F3F
:101F5000284B1B6813F4806F4AD02DE9F0470646E2
:101F6000254B1B680BB101221A7006EB010A56457E
:101F700039D2DFF89480214D214FDFF8909098F806
:101F800000400134402C28BF00242B78DBB29C4257
:101F90001DD1BC23FB70FFF777FD40280FDC3B7998
:101FA00013F0800F0FD02B780133402B28BF002374
:101FB00019F80320D2B2FA71DBB22B7003E0FF28CC
:101FC00001DDFFF7CFFB2B78DBB29C42E3D016F8A4
:101FD000013B09F8043001220A4B1A70E4B288F878
:101FE0000040B245CBD1BC22054BDA70BDE8F0878A
:101FF000704700BF34800440D093FF1FCD93FF1F74
:1020000000A006404493FF1FD493FF1F4893FF1F77
:10201000074B1B7813F0FF0F08D010B5044CFFF7E7
:10202000A1FB237813F0FF0FF9D110BD704700BF5B
:102030004493FF1F064B1B78DBB2064A1078C0B2F0
:1020400083422CBF3F3000F1FF30C01A704700BF01
:10205000D493FF1FCD93FF1F054B1878C0B2054BDB
:102060001B78DBB2984238BF4030C01A704700BFBF
:10207000CC93FF1F4593FF1F10B4184B1B78DAB2A7
:10208000174B1B78DBB29A4217D001333F2B17D87E
:102090001449C85CC0B2D9B2114C21701249096808
:1020A000C9B19A4202D3FFE7D31A01E04032D31AF2
:1020B0001A2B10DC00230B700DE04FF0FF300AE00C
:1020C000084B1878C0B20021054B1970064B1968EF
:1020D00000230029E8D110BC704700BFCC93FF1F3C
:1020E0004593FF1F8C93FF1F4093FF1F094B1A78E6
:1020F000D2B2094B1B78DBB29A4207D00133402B96
:1021000028BF0023054AD05CC0B270474FF0FF30B3
:10211000704700BFCC93FF1F4593FF1F8C93FF1F99
:102120000D4B1B6813F4806F14D00C4BDA7802F05F
:10213000CB02DA7040225A74DA7842F03402DA7054
:10214000074B1B78DBB2074A1370074B1B680BB1B8
:1021500000221A70704700BF3480044000A006407F
:102160004593FF1FCC93FF1F4093FF1F70B43E4B5E
:102170001B7913F0300F32D072B63B4B9B7D03F0CE
:10218000FF022BB9384BDA7940225A7462B626E046
:1021900062B6364B1878C0B2354B1C78E4B2324D7B
:1021A000344EEB79D9B2431C402B28BF0023A34205
:1021B0001CBFF1541846531E13F0FF02F1D1C3B2F5
:1021C0002A4A13702C4B1B684BB1A0422EBF001B38
:1021D000C4F1400400192728C4BF01221A70224B01
:1021E000DA78D2B212F0800F29D01B7913F0800F69
:1021F00025D0224B1C78E4B2214B1B78DBB29C42E9
:1022000012D019481F4D01E0A3420CD00133402BDE
:1022100028BF00230179E95CC9B2C171017DC9B24F
:102220000729F1D900E02346DBB215490B700E4BAC
:102230001B7913F0800F02D07C210B4BD97012F068
:10224000400F0ED0084B1B7913F0400F09D000222D
:102250000D4B1A700D4B1B6803B11A703C22024BD8
:10226000DA7070BC704700BF00A00640CC93FF1F1F
:102270004593FF1F8C93FF1F4093FF1FD493FF1FB5
:10228000CD93FF1F4893FF1F4493FF1FD093FF1F61
:10229000254A136843F4006313600023234A137034
:1022A000234A1370234A1370234A1370234A13706E
:1022B000234B1B78092B02D01A2B05D008E040F2E3
:1022C0001332204B1A6003E040F213321E4B1A60A7
:1022D0001E4B1B780A2B02D01F2B05D008E04FF4B1
:1022E00051721B4B1A6003E04FF45172194B1A6084
:1022F000C0F34432184B1A70C0F347125A7000F002
:102300001F00987204229A700221D9745A7588228B
:102310001A743C22DA704022104B1A704FF40042BB
:10232000A3F22B331A607047348004404894FF1F97
:10233000DD93FF1F5094FF1F4994FF1FDC93FF1F85
:102340002D87FF1F0CB0044004D004402E87FF1FD0
:1023500010B0044000D0044000B006402FE400E07C
:10236000154B9B7803F0EC0200F00303134310F0CD
:10237000040F18BF43F010030F4A937000F00F03CF
:10238000042B03D1937943F0400393710A4B5B799B
:1023900003F0EF0310F0100F18BF43F01003064ACC
:1023A0005371937903F0EF0310F0200F18BF43F03F
:1023B0001003014A9371704700B00640234B1B681D
:1023C00013F4006F40D010B5214B1B7813F0FF0FB2
:1023D00006D01F4CFFF7C6F9237813F0FF0FF9D191
:1023E0004FF400421B4B1A6000221B4BDA701B4B50
:1023F0001B78092B02D01A2B05D008E040F20312FB
:10240000174B1A6003E040F20312164B1A60164B8A
:102410001B7803F07F030A2B02D01F2B05D008E0A6
:1024200040F20312114B1A6003E040F20312104B0A
:102430001A6000230F4A13700F4A13700F4B1B686A
:102440000BB101221A7010BD704700BF34800440E8
:10245000DC93FF1F84E100E000B006402D87FF1FE2
:102460000CB0044004D004402E87FF1F10B004407D
:1024700000D004404894FF1FDD93FF1FD893FF1F37
:1024800010B50446094A137813F0FF0FFBD1012160
:102490002046FEF7F3F900212046FEF7CBF9044B66
:1024A00053F83420034B1A6010BD00BFDC93FF1FAC
:1024B000808100004C94FF1F10B40C4609B140F01D
:1024C0008000174B1B78984228D0164A126812F4E5
:1024D000006F21D003F07F030A2B02D01F2B04D002
:1024E00006E00022104B1A6002E000220F4B1A6037
:1024F000002C14BF6023442300F07F020A2A02D07C
:102500001F2A05D008E043F44073074A136003E034
:1025100043F44073054A1360014B187010BC7047B8
:102520002E87FF1F3480044010B0044000D00440C8
:10253000124B1B78834220D0114A126812F4006FAC
:1025400019D0092B02D01A2B04D006E000220D4B23
:102550001A6002E000220C4B1A60092802D01A28E7
:1025600005D008E040F21332064B1A6003E040F257
:102570001332054B1A60014B187070472D87FF1FEF
:10258000348004400CB0044004D004400D4B1B6860
:1025900013F4006F13D021280DD810B50A4C0B4B43
:1025A00053F8303023600121FEF768F923680022D8
:1025B0001A70012010BD0020034B186070470020E6
:1025C000704700BF34800440D893FF1F8081000013
:1025D0000D4B1B6813F4006F13D017280AD140F27B
:1025E00002320A4B1A600A4A537B43F001035373C9
:1025F00001207047064A537B03F0FE03537300200B
:1026000070470020704700BF3480044008B0044089
:1026100000B00640214B1B6813F4006F3CD02DE93D
:10262000F0411F4B1B680BB101221A7007461D4B6E
:102630001C780134282C28BF00241B4D1B4EDFF8CA
:10264000708017E0FFF720FA40280FDC337913F091
:10265000800F0FD02B780133282B28BF002318F8C8
:102660000320D2B2F271DBB22B7003E0FF2801DD50
:10267000FFF778F82B78DBB29C42E3D0FFB20C4B2B
:102680001F5501220B4B1A70E4B2064B1C70BC2282
:10269000064BDA70BDE8F081704700BF348004401B
:1026A0004C94FF1F5094FF1F4994FF1F00B0064039
:1026B000E093FF1FDC93FF1F284B1B6813F4006F90
:1026C0004AD02DE9F0470646254B1B680BB1012285
:1026D0001A7006EB010A564539D2DFF89480214D75
:1026E000214FDFF8909098F800400134282C28BF43
:1026F00000242B78DBB29C421DD1BC23FB70FFF77A
:10270000C3F940280FDC3B7913F0800F0FD02B78F2
:102710000133282B28BF002319F80320D2B2FA7105
:10272000DBB22B7003E0FF2801DDFFF71BF82B78ED
:10273000DBB29C42E3D016F8013B09F804300122D9
:102740000A4B1A70E4B288F80040B245CBD1BC22E3
:10275000054BDA70BDE8F087704700BF3480044055
:102760004C94FF1F4994FF1F00B00640DC93FF1FED
:102770005094FF1FE093FF1F074B1B7813F0FF0FD0
:1027800008D010B5044CFEF7EDFF237813F0FF0FCF
:10279000F9D110BD704700BFDC93FF1F064B1B78BB
:1027A000DBB2064A1078C0B283422CBF273000F15A
:1027B000FF30C01A704700BF5094FF1F4994FF1F9D
:1027C000054B1878C0B2054B1B78DBB2984238BF76
:1027D0004030C01A704700BF4894FF1FDD93FF1FB1
:1027E00010B4184B1B78DAB2174B1B78DBB29A4245
:1027F00017D001333F2B17D81449C85CC0B2D9B2E7
:10280000114C217012490968C9B19A4202D3FFE7FD
:10281000D31A01E04032D31A1A2B10DC00230B70BC
:102820000DE04FF0FF300AE0084B1878C0B20021ED
:10283000054B1970064B196800230029E8D110BC1C
:10284000704700BF4894FF1FDD93FF1F0894FF1FD0
:10285000D893FF1F094B1A78D2B2094B1B78DBB211
:102860009A4207D00133402B28BF0023054AD05C91
:10287000C0B270474FF0FF30704700BF4894FF1F51
:10288000DD93FF1F0894FF1F0D4B1B6813F4006FAF
:1028900014D00C4BDA7802F0CB02DA7040225A7472
:1028A000DA7842F03402DA70074B1B78DBB2074A61
:1028B0001370074B1B680BB100221A70704700BFE2
:1028C0003480044000B00640DD93FF1F4894FF1F92
:1028D000D893FF1F70B43E4B1B7913F0300F32D0EA
:1028E00072B63B4B9B7D03F0FF022BB9384BDA7974
:1028F00040225A7462B626E062B6364B1878C0B2EF
:10290000354B1C78E4B2324D344EEB79D9B2431CCE
:10291000402B28BF0023A3421CBFF1541846531E6E
:1029200013F0FF02F1D1C3B22A4A13702C4B1B687B
:102930004BB1A0422EBF001BC4F140040019272850
:10294000C4BF01221A70224BDA78D2B212F0800F83
:1029500029D01B7913F0800F25D0224B1C78E4B2CC
:10296000214B1B78DBB29C4212D019481F4D01E06D
:10297000A3420CD00133282B28BF00230179E95C46
:10298000C9B2C171017DC9B20729F1D900E023465E
:10299000DBB215490B700E4B1B7913F0800F02D080
:1029A0007C210B4BD97012F0400F0ED0084B1B79D5
:1029B00013F0400F09D000220D4B1A700D4B1B680D
:1029C00003B11A703C22024BDA7070BC704700BF32
:1029D00000B006404894FF1FDD93FF1F0894FF1FBF
:1029E000D893FF1F5094FF1F4994FF1FE093FF1FD0
:1029F000DC93FF1F4C94FF1F174A136843F4805366
:102A000013600023154A1370154A1370154A13708A
:102A1000154A1370154A137040F21331144A1160AD
:102A20004FF4517104321160C0F34431114A1170F6
:102A3000C0F34711517000F01F009072937013742F
:102A40002C23D37040220C4B1A704FF40032A3F2A7
:102A50002D331A60704700BF34800440C494FF1FB8
:102A60005994FF1FCC94FF1FC594FF1F5894FF1F5C
:102A700008C0044000C0064031E400E0154B9B78DC
:102A800003F0EC0200F00303134310F0040F18BF2F
:102A900043F010030F4A937000F00F03042B03D18F
:102AA000937943F0400393710A4B5B7903F0EF0392
:102AB00010F0100F18BF43F01003064A53719379BA
:102AC00003F0EF0310F0200F18BF43F01003014A8A
:102AD0009371704700C00640144B1B6813F4805F6D
:102AE00023D010B5124B1B7813F0FF0F06D0104CFB
:102AF000FEF738FE237813F0FF0FF9D14FF40032C0
:102B00000C4B1A6000230C4AD37040F203120B499D
:102B10000A6004310A600A4A13700A4A13700A4BA9
:102B20001B680BB101221A7010BD7047348004403D
:102B30005894FF1F84E100E000C0064008C0044034
:102B4000C494FF1F5994FF1F5494FF1F10B50446EF
:102B5000094A137813F0FF0FFBD101212046FDF73E
:102B60008DFE00212046FDF765FE044B53F834200E
:102B7000034B1A6010BD00BF5894FF1F80810000F6
:102B8000C894FF1F10B40C4609B140F08000104BF0
:102B90001B78984219D00F4A126812F4805F12D045
:102BA00003F07F03082B02D100220B4B1A60002C8C
:102BB00014BF6023442300F07F02082A03D143F4AA
:102BC0004073054A1360024B187010BC704700BF79
:102BD0002F87FF1F348004400CC00440704700BFA3
:102BE0000D4B1B6813F4805F13D021280DD810B54E
:102BF0000A4C0B4B53F8303023600121FDF73EFEA9
:102C0000236800221A70012010BD0020034B1860B9
:102C100070470020704700BF348004405494FF1F69
:102C2000808100000D4B1B6813F4805F13D00E28C9
:102C30000AD140F202320A4B1A600A4A537B43F02F
:102C40000103537301207047064A537B03F0FE03D0
:102C50005373002070470020704700BF3480044049
:102C600004C0044000C00640214B1B6813F4805F81
:102C70003CD02DE9F0411F4B1B680BB101221A70AB
:102C800007461D4B1C780134282C28BF00241B4DFF
:102C90001B4EDFF8708017E0FEF7F6FE40280FDCD1
:102CA000337913F0800F0FD02B780133282B28BFF6
:102CB000002318F80320D2B2F271DBB22B7003E0CC
:102CC000FF2801DDFEF74EFD2B78DBB29C42E3D0FE
:102CD000FFB20C4B1F5501220B4B1A70E4B2064B8E
:102CE0001C70AC22064BDA70BDE8F081704700BF63
:102CF00034800440C894FF1FCC94FF1FC594FF1F6D
:102D000000C006405C94FF1F5894FF1F38B505466D
:102D10000C4629B115F8010BFFF7A6FF013CF9D1CC
:102D200038BD00BF074B1B7813F0FF0F08D010B55C
:102D3000044CFEF717FD237813F0FF0FF9D110BDF7
:102D4000704700BF5894FF1F064B1B78DBB2064A42
:102D50001078C0B283422CBF273000F1FF30C01A78
:102D6000704700BFCC94FF1FC594FF1F054B187818
:102D7000C0B2054B1B78DBB2984238BF4030C01A56
:102D8000704700BFC494FF1F5994FF1F10B4184B25
:102D90001B78DAB2174B1B78DBB29A4217D001339B
:102DA0003F2B17D81449C85CC0B2D9B2114C21705E
:102DB00012490968C9B19A4202D3FFE7D31A01E068
:102DC0004032D31A1A2B10DC00230B700DE04FF0A9
:102DD000FF300AE0084B1878C0B20021054B19708B
:102DE000064B196800230029E8D110BC704700BFCA
:102DF000C494FF1F5994FF1F8494FF1F5494FF1F16
:102E0000094B1A78D2B2094B1B78DBB29A4207D031
:102E10000133402B28BF0023054AD05CC0B2704765
:102E20004FF0FF30704700BFC494FF1F5994FF1F3D
:102E30008494FF1F054B1B78DBB2054A1370054BCA
:102E40001B680BB100221A70704700BF5994FF1F16
:102E5000C494FF1F5494FF1F2E4B1B7913F0200FB7
:102E600022D02C4BDB79D9B22B4B1B780133402B72
:102E700028BF0023294A1278D2B2934204D0284AAC
:102E8000D154DAB224490A70264A116861B1264A3F
:102E90001278D2B293422EBF9B1AC2F140029B1805
:102EA000272BC4BF01230B701A4BDB78DBB213F066
:102EB000800F1CD0174A127912F0800F17D01B4ACE
:102EC0001178C9B2184A1278D2B2914203D16C215A
:102ED000104AD1700BE00132282A28BF0022144981
:102EE000895CC9B20B48C171D2B20F490A7013F0A4
:102EF000400F0ED0074B1B7913F0400F09D0002272
:102F00000C4B1A700C4B1B6803B11A702C22014B2E
:102F1000DA70704700C00640C494FF1F5994FF1F29
:102F20008494FF1F5494FF1FC594FF1FCC94FF1F70
:102F30005C94FF1F5894FF1FC894FF1F72B61D4B6F
:102F400070221A7041211C4A11700F21013A117030
:102F500080221A701A46137813F0800FFBD000B548
:102F600085B0164B186862B6154B98429CBF00EBB3
:102F7000800040000A2201A9FEF7A6FD9DF804305A
:102F80007BB908E010F8012F32B121F8022F01338C
:102F90000A2BF7D100E0002301335B00094A1370CC
:102FA00005E0084921F8023F01A80123EAE705B03E
:102FB0005DF804FB000002400700024008000240E8
:102FC0007F969800BC87FF1F08B503681B68C9B2CD
:102FD000984708BD08B503681B68C9B2984708BD83
:102FE00008B503681B68C9B2984708BD08B50368EF
:102FF0001B68C9B2984708BD08B50846FEF756FFDA
:10300000012008BD08B50846FEF750FF012008BDA5
:1030100038B50D46084601F013FC04460146284623
:10302000FEF796FF204638BD10B5084614461146F7
:10303000FEF78EFF204610BD08B5FEF7FBFF08BD6A
:1030400008B5FFF76DF808BD08B50846FEF702FFA2
:10305000003018BF012008BD08B50846FEF7D8FEAD
:10306000003018BF012008BD08B508461146FEF71C
:1030700067FE08BD08B50846FEF79EFE08BD00BF06
:1030800008B50846FEF740FE08BD00BF08B5FEF7CC
:10309000DBFD08BD08B54B0803F1B76000F55840EB
:1030A000B0FBF1F0FEF73AFD08BD00BF10B51446C5
:1030B0004B0803F1B76000F55840B0FBF1F0FEF7A4
:1030C0002DFD2046FEF792FD10BD00BF08B5FEF7AE
:1030D0009FFF08BD08B5FFF709F808BD08B5FEF762
:1030E000CBFF08BD08B5FEF7B7FF08BD704700BFAE
:1030F000044B00221A714FF47A7199601A73024AD4
:103100001A607047D094FF1F1483000008B503684D
:103110001B68C9B2984708BD08B503681B68C9B2E7
:10312000984708BD08B503681B68C9B2984708BD31
:1031300008B503681B68C9B2984708BD08B50846BA
:10314000FFF768FA012008BD08B50846FFF762FAE4
:10315000012008BD38B50D46084601F071FB044654
:1031600001462846FFF7A8FA204638BD10B50846A4
:1031700014461146FFF7A0FA204610BD08B5FFF728
:103180000DFB08BD08B5FFF77FFB08BD08B5084675
:10319000FFF71EFA003018BF012008BD08B5084629
:1031A000FFF7F4F9003018BF012008BD08B5084644
:1031B0001146FFF781F908BD08B50846FFF7B8F9D1
:1031C00008BD00BF08B50846FFF75AF908BD00BFA3
:1031D00008B5FFF7F3F808BD08B54B0803F1B76071
:1031E00000F55840B0FBF1F0FFF752F808BD00BF02
:1031F00010B514464B0803F1B76000F55840B0FB1A
:10320000F1F0FFF745F82046FFF7AAF810BD00BF20
:1032100008B5FFF7B1FA08BD08B5FFF71BFB08BDFD
:1032200008B5FFF7DDFA08BD08B5FFF7C9FA08BD14
:10323000704700BF044B00221A714FF47A719960F5
:103240001A73024A1A607047E094FF1F74830000EB
:1032500008B503681B68C9B2984708BD08B503687C
:103260001B68C9B2984708BD08B503681B68C9B296
:10327000984708BD08B503681B68C9B2984708BDE0
:1032800008B50846FFF7F0FC012008BD08B5084660
:10329000FFF7EAFC012008BD38B50D46084601F0ED
:1032A000CFFA044601462846FFF730FD204638BDD8
:1032B00010B5084614461146FFF728FD204610BDFC
:1032C00008B5FFF741FD08BD08B5FFF7B3FD08BD20
:1032D00008B50846FFF7A6FC003018BF012008BD5E
:1032E00008B50846FFF77CFC003018BF012008BD78
:1032F00008B508461146FFF745FC08BD08B5084665
:10330000FFF76CFC08BD00BF08B50846FFF71EFCC0
:1033100008BD00BF08B5FFF7DFFB08BD08B54B08C7
:1033200003F1B76000F55840B0FBF1F0FFF764FB24
:1033300008BD00BF10B514464B0803F1B76000F597
:103340005840B0FBF1F0FFF757FB2046FFF796FB24
:1033500010BD00BF08B5FFF7E5FC08BD08B5FFF7D5
:103360004FFD08BD08B5FFF711FD08BD08B5FFF713
:10337000FDFC08BD704700BF044B00221A714FF4DA
:103380007A7199601A73024A1A607047F094FF1FAD
:10339000D483000081F0004102E000BF83F00043CD
:1033A00030B54FEA41044FEA430594EA050F08BFE0
:1033B00090EA020F1FBF54EA000C55EA020C7FEAA4
:1033C000645C7FEA655C00F0E2804FEA5454D4EB21
:1033D0005555B8BF6D420CDD2C4480EA020281EAEB
:1033E000030382EA000083EA010180EA020281EA23
:1033F0000303362D88BF30BD11F0004F4FEA013175
:103400004FF4801C4CEA113102D0404261EB410183
:1034100013F0004F4FEA03334CEA133302D0524209
:1034200063EB430394EA050F00F0A780A4F10104C5
:10343000D5F1200E0DDB02FA0EFC22FA05F28018FF
:1034400041F1000103FA0EF2801843FA05F35941E5
:103450000EE0A5F120050EF1200E012A03FA0EFC64
:1034600028BF4CF0020C43FA05F3C01851EBE3718E
:1034700001F0004507D54FF0000EDCF1000C7EEBAB
:1034800000006EEB0101B1F5801F1BD3B1F5001FE9
:103490000CD349085FEA30004FEA3C0C04F1010408
:1034A0004FEA445212F5800F80F09A80BCF1004F31
:1034B00008BF5FEA500C50F1000041EB045141EAB3
:1034C000050130BD5FEA4C0C404141EB010111F4B4
:1034D000801FA4F10104E9D191F0000F04BF01465F
:1034E0000020B1FA81F308BF2033A3F10B03B3F13D
:1034F00020020CDA0C3208DD02F1140CC2F10C02CD
:1035000001FA0CF021FA02F10CE002F11402D8BF2A
:10351000C2F1200C01FA02F120FA0CFCDCBF41EAF6
:103520000C019040E41AA2BF01EB0451294330BDC5
:103530006FEA04041F3C1CDA0C340EDC04F11404A2
:10354000C4F1200220FA04F001FA02F340EA030079
:1035500021FA04F345EA030130BDC4F10C04C4F1BF
:10356000200220FA02F001FA04F340EA030029469F
:1035700030BD21FA04F0294630BD94F0000F83F4E9
:10358000801306BF81F480110134013D4EE77FEACC
:10359000645C18BF7FEA655C29D094EA050F08BF18
:1035A00090EA020F05D054EA000C04BF19461046F9
:1035B00030BD91EA030F1EBF0021002030BD5FEA3D
:1035C000545C05D14000494128BF41F0004130BD65
:1035D00014F580043CBF01F5801130BD01F00045B9
:1035E00045F0FE4141F470014FF0000030BD7FEA2C
:1035F000645C1ABF194610467FEA655C1CBF0B4627
:10360000024650EA013406BF52EA033591EA030F3D
:1036100041F4002130BD00BF90F0000F04BF002135
:10362000704730B54FF4806404F132044FF0000568
:103630004FF0000150E700BF90F0000F04BF0021E1
:10364000704730B54FF4806404F1320410F0004547
:1036500048BF40424FF000013EE700BF42004FEA42
:10366000E2014FEA31014FEA02701FBF12F07F43BF
:1036700093F07F4F81F06051704792F0000F14BFBC
:1036800093F07F4F704730B54FF4607401F0004500
:1036900021F0004120E700BF50EA010208BF704757
:1036A00030B54FF000050AE050EA010208BF70474C
:1036B00030B511F0004502D5404261EB41014FF4B5
:1036C000806404F132045FEA915C3FF4DCAE4FF0B9
:1036D00003025FEADC0C18BF03325FEADC0C18BFA0
:1036E000033202EBDC02C2F1200300FA03FC20FAF1
:1036F00002F001FA03FE40EA0E0021FA02F114443E
:10370000C1E600BF70B54FF0FF0C4CF4E06C1CEA52
:1037100011541DBF1CEA135594EA0C0F95EA0C0FC7
:1037200000F0DEF82C4481EA030621EA4C5123EA3A
:103730004C5350EA013518BF52EA033541F4801169
:1037400043F4801338D0A0FB02CE4FF00005E1FB1C
:1037500002E506F00042E0FB03E54FF00006E1FB66
:1037600003569CF0000F18BF4EF0010EA4F1FF04A9
:10377000B6F5007F64F5407404D25FEA4E0E6D41E9
:1037800046EB060642EAC62141EA55514FEAC520FA
:1037900040EA5E504FEACE2EB4F1FD0C88BFBCF576
:1037A000E06F1ED8BEF1004F08BF5FEA500E50F127
:1037B000000041EB045170BD06F0004646EA0101ED
:1037C00040EA020081EA0301B4EB5C04C2BFD4EB1F
:1037D0000C0541EA045170BD41F480114FF0000E18
:1037E000013C00F3AB8014F1360FDEBF002001F086
:1037F000004170BDC4F10004203C35DA0C341BDC00
:1038000004F11404C4F1200500FA05F320FA04F0D1
:1038100001FA05F240EA020001F0004221F0004105
:1038200010EBD37021FA04F642EB06015EEA430E78
:1038300008BF20EAD37070BDC4F10C04C4F12005A8
:1038400000FA04F320FA05F001FA04F240EA02005B
:1038500001F0004110EBD37041F100015EEA430E2C
:1038600008BF20EAD37070BDC4F1200500FA05F24C
:103870004EEA020E20FA04F301FA05F243EA0203CB
:1038800021FA04F001F0004121FA04F220EA0200DA
:1038900000EBD3705EEA430E08BF20EAD37070BD20
:1038A00094F0000F0FD101F00046400041EB010100
:1038B00011F4801F08BF013CF7D041EA060195F0E2
:1038C000000F18BF704703F00046520043EB03039C
:1038D00013F4801F08BF013DF7D043EA0603704789
:1038E00094EA0C0F0CEA135518BF95EA0C0F0CD094
:1038F00050EA410618BF52EA4306D1D181EA0301DA
:1039000001F000414FF0000070BD50EA410606BFD3
:103910001046194652EA430619D094EA0C0F02D118
:1039200050EA013613D195EA0C0F05D152EA03365D
:103930001CBF104619460AD181EA030101F000417B
:1039400041F0FE4141F470014FF0000070BD41F0C4
:10395000FE4141F4780170BD70B54FF0FF0C4CF49E
:10396000E06C1CEA11541DBF1CEA135594EA0C0FBD
:1039700095EA0C0F00F0A7F8A4EB050481EA030E0A
:1039800052EA03354FEA013100F088804FEA0333F1
:103990004FF0805545EA131343EA12634FEA0222BF
:1039A00045EA111545EA10654FEA00260EF0004180
:1039B0009D4208BF964244F1FD0404F5407402D2D2
:1039C0005B084FEA3202B61A65EB03055B084FEA63
:1039D00032024FF480104FF4002CB6EB020E75EB60
:1039E000030E22BFB61A754640EA0C005B084FEA88
:1039F0003202B6EB020E75EB030E22BFB61A754605
:103A000040EA5C005B084FEA3202B6EB020E75EB4F
:103A1000030E22BFB61A754640EA9C005B084FEAC7
:103A20003202B6EB020E75EB030E22BFB61A7546D4
:103A300040EADC0055EA060E18D04FEA051545EAC3
:103A400016754FEA06164FEAC30343EA52734FEA6C
:103A5000C2025FEA1C1CC0D111F4801F0BD141EAE5
:103A600000014FF000004FF0004CB6E711F4801F4A
:103A700004BF01430020B4F1FD0C88BFBCF5E06F2A
:103A80003FF6AFAEB5EB030C04BFB6EB020C5FEA3A
:103A9000500C50F1000041EB045170BD0EF0004E8F
:103AA0004EEA113114EB5C04C2BFD4EB0C0541EAC1
:103AB000045170BD41F480114FF0000E013C90E6BE
:103AC00045EA060E8DE60CEA135594EA0C0F08BF82
:103AD00095EA0C0F3FF43BAF94EA0C0F0AD150EA81
:103AE00001347FF434AF95EA0C0F7FF425AF104614
:103AF00019462CE795EA0C0F06D152EA03353FF43C
:103B0000FDAE1046194622E750EA410618BF52EAB8
:103B100043067FF4C5AE50EA41047FF40DAF52EA8C
:103B200043057FF4EBAE12E74FF0FF3C06E000BF29
:103B30004FF0010C02E000BF4FF0010C4DF804CD36
:103B40004FEA410C7FEA6C5C4FEA430C18BF7FEAF6
:103B50006C5C1BD001B050EA410C0CBF52EA430C24
:103B600091EA030F02BF90EA020F0020704710F1A4
:103B7000000F91EA030F58BF994208BF90422CBF33
:103B8000D8176FEAE37040F0010070474FEA410C2C
:103B90007FEA6C5C02D150EA013C07D14FEA430C4A
:103BA0007FEA6C5CD6D152EA033CD3D05DF8040BBB
:103BB000704700BF8446104662468C4619466346ED
:103BC00000E000BF01B5FFF7B7FF002848BF10F1C4
:103BD000000F01BD4DF808EDFFF7F4FF0CBF012009
:103BE00000205DF808FB00BF4DF808EDFFF7EAFF85
:103BF00034BF012000205DF808FB00BF4DF808ED40
:103C0000FFF7E0FF94BF012000205DF808FB00BF34
:103C10004DF808EDFFF7CEFF94BF012000205DF8BE
:103C200008FB00BF4DF808EDFFF7C4FF34BF0120CB
:103C300000205DF808FB00BF4FEA410C7FEA6C5C96
:103C400002D150EA013C0AD14FEA430C7FEA6C5C96
:103C500002D152EA033C02D14FF0000070474FF00E
:103C600001007047014B1868704700BF008CFF1FB0
:103C700070B50F4E0F4D761BB61018BF002405D03F
:103C8000013455F8043B9847A642F9D10A4E0B4D32
:103C9000761B04F011FDB61018BF002406D00134C5
:103CA00055F8043B9847A642F9D170BD70BD00BFDE
:103CB000C4860000C4860000DC860000C4860000C4
:103CC000024B0146186800F003B800BF008CFF1FCC
:103CD0002DE9F04F01F10B05162D83B0064640F299
:103CE0009F8035F0070500F1BF80A94200F2BC803B
:103CF00000F06EFBB5F5FC7FC0F09C826B0A00F013
:103D0000BA80042B00F28381A80900F1390E4FEA32
:103D10004E033830C44F07EB8303A3F108015C68FE
:103D2000A14207D1ACE0002A80F2AC80E468A14255
:103D300000F0A680636823F003035A1B0F2AF2DD0C
:103D4000B9493C6901F1080E744500F0B38163681C
:103D500023F003035A1B0F2A00F39981002AC1F8AC
:103D600014E0C1F810E080F29E80B3F5007F80F08F
:103D70006781DB0803F1010C01229B1002FA03F3B7
:103D80004A6851F83C80C4F8088001EBCC091A431A
:103D9000A9F10803E3604A6041F83C40C8F80C40D0
:103DA000831001249C40944200F28A80144206D180
:103DB00020F003006400144200F10400FAD007EB85
:103DC000C009CC468046DCF80C108C4507D173E165
:103DD000002A80F28181C9688C4500F06D814B68B2
:103DE00023F003035A1B0F2AF2DD0C46D1F80CC056
:103DF00054F8088F4B1945F001054D6042F0010160
:103E0000C8F80CC03046CCF808807B613B61C3F831
:103E10000CE0C3F808E059609A5000F0DBFA1FE0AC
:103E2000102921D800F0D4FA1025062302207E4F55
:103E300007EB8303A3F108025C68944200F045811C
:103E40006368E168A56823F00303234430465A6899
:103E5000E96042F001028D605A6000F0BBFA08345C
:103E6000204603B0BDE8F08F00240C2320463360C9
:103E700003B0BDE8F08F80234FF0400E3F2049E7AC
:103E800070465DE72344E1685A68A56842F0010284
:103E9000E96030468D605A6000F09CFA0834204694
:103EA00003B0BDE8F08F234430465A6842F0010267
:103EB0005A6000F08FFA0834204603B0BDE8F08F56
:103EC000BC68636823F00308A84504D3C5EB080366
:103ED0000F2B00F38C80554BDFF860911A68D9F8EE
:103EE000003001332A4404EB080A00F0608102F537
:103EF00080520F3222F47F6222F00F0211463046C8
:103F0000019200F059FCB0F1FF3F8346019A00F0A6
:103F10005881824500F2FC80454B1968DA4511440E
:103F2000196000F05381D9F80000DFF810E101308A
:103F30001BBFCAEB0B0A5144CEF800B019601BF04E
:103F4000070100F01781C1F10800C1F580518344D9
:103F500008315A44C2F30B02C2EB0109494630460C
:103F6000019300F029FC431C019B00F03F81CBEB47
:103F700000024A4442F001021968C7F808B04944F7
:103F8000BC42CBF804201960DFF8A49016D0B8F139
:103F90000F0F40F2FD806268A8F10C0323F00703C5
:103FA000E01802F001024FF0050E1A430F2B626079
:103FB000C0F804E0C0F808E000F21C811D4BBC68AA
:103FC0001A68914288BF19601B4B1A689142626857
:103FD00088BF196022F003029542A2EB050301D8C5
:103FE0000F2B04DC304600F0F5F9002438E76219A5
:103FF00043F0010345F0010565603046BA60536047
:1040000000F0E8F90834204603B0BDE8F08F142B27
:1040100071D9542B00F2A480280B00F16F0E4FEAE7
:104020004E036E3076E600BF708DFF1F0895FF1FB0
:104030000C95FF1F0495FF1F0095FF1F7C91FF1F2C
:104040005A0A042A5ED9142A00F2B38002F15C01F4
:1040500049005B3207EB810C57F82110DFF8DC8157
:10406000ACF1080C8C4500F088804A6822F003020D
:10407000934202D289688C45F7D1D1F80CC07A6896
:10408000C4F80CC0A160CCF80840CC6088E6631985
:1040900042F0010745F00105656030464B610B6158
:1040A000C3F80CE0C3F808E05F609A50083400F0F1
:1040B00091F9D5E64A6873E608F1010818F0030F94
:1040C0000CF1080C7FF47FAE30E0DC68A34208BF3F
:1040D00002303FF435AEB3E60B440C465A68C9686B
:1040E00054F8085F42F001025A603046E9608D6082
:1040F00000F070F9B4E603F15C0E03F15B004FEAE7
:104100004E0307E69A0902F1390149003832A1E766
:10411000BC424A4B3FF400AF9C68626822F0030245
:104120005AE759F80839994540F0828010F0030F9A
:1041300000F1FF30F5D17B6823EA04037B60640063
:104140009C423FF6BDAE002C3FF4BAAE1C42404646
:104150007FF435AE64001C4200F10400FAD02EE674
:10416000B3F5AA7F18D8E80B00F1780E4FEA4E039A
:104170007730CFE54FF48051EBE60121D8F80430D9
:10418000921001FA02F21A43C8F80420614677E758
:104190000123CBF8043025E740F25452934220D853
:1041A000A80C00F17D0E4FEA4E037C30B2E51032D0
:1041B000A4E6542A26D81A0B02F16F0149006E3288
:1041C00048E7BC68626822F0030205E7CAF30B0007
:1041D00000287FF4A8AE4244BB6842F001025A6056
:1041E000ECE6FE234FF07F0E7E2093E501224FF098
:1041F0000009C1E604F10801304602F06FFFD9F86A
:104200000010DBE6B2F5AA7F05D8DA0B02F17801DF
:10421000490077321EE740F254518A4205D89A0C81
:1042200002F17D0149007C3214E7FE217E2211E774
:104230007B6884E7E808431C5B00F8E5708DFF1F8E
:1042400082B049B15AB16BB113780B601278101C6F
:1042500018BF012002B0704701A9002AF3D110460F
:1042600002B070476FF00100F4E700BF8842F0B57C
:104270000DD98B1898420AD28118002A51D09A1A67
:1042800013F8014D01F8014D9342F9D1F0BD0F2A09
:1042900048D941EA00039B0746D100F1100401F11F
:1042A0001003154653F8106C44F8106C53F80C6C5E
:1042B00044F80C6C53F8086C44F8086C103D53F843
:1042C000046C44F8046C0F2D03F1100304F1100486
:1042D000E8D8A2F1100323F00F0302F00F0E103301
:1042E000BEF1030F1944034421D91E1F0D46744625
:1042F000043C55F8047B46F8047F032CF8D8AEF153
:10430000040424F0030404342344214402F003028F
:1043100062B1013B0A4411F8014B03F8014F8A4294
:10432000F9D1F0BD0346F3E70346F2E7F0BD72466C
:10433000EEE700BF70B4840746D0541E002A41D077
:10434000CDB2034602E0621EE4B3144603F8015BFB
:104350009A07F8D1032C2ED9CDB245EA05250F2CAA
:1043600045EA054519D903F110022646103E0F2EE5
:1043700042F8105C42F80C5C42F8085C42F8045CBD
:1043800002F11002F2D8A4F1100222F00F0204F0A0
:104390000F041032032C13440DD91E462246043A52
:1043A000032A46F8045BFAD8221F22F003020432E3
:1043B000134404F003042CB1C9B21C4403F8011BDC
:1043C000A342FBD170BC704714460346C2E700BF4E
:1043D000704700BF704700BF2DE9F04F174683B00C
:1043E000002900F0C1800E46814607F10B05FFF75A
:1043F000EFFF56F804EC162D2EF00304A6F1080882
:1044000040D810221546AF4241D8944275DAC94BC4
:10441000996808EB04008842416800F0D98021F0D7
:10442000010303445B68DB077DD51EF0010F35D027
:1044300039464846FFF74CFC0746E0B156F8043CC5
:1044400023F001034344A0F108029A4200F04481A2
:10445000221F242A00F23181132A00F2048103462C
:104460003246116819605168596092689A60314605
:10447000484602F033FE4846FFF7ACFF384603B02B
:10448000BDE8F08F25F00705002D2A46BBDA0C2386
:104490000020C9F8003003B0BDE8F08F56F8083CA2
:1044A000C3EB080ADAF8043023F0030C04EB0C0326
:1044B0009342BDDB5746DAF80C1057F8080F221F5D
:1044C000242AC160886000F21781132A40F2128109
:1044D0003168CAF808107168CAF80C101B2A00F27B
:1044E0002B8108360AF11002316811607168516041
:1044F000B16891603E461C46D046631B0F2B1DD809
:10450000D8F8043003F0010323434444C8F80430CE
:10451000636843F0010363604846FFF75BFF304682
:1045200003B0BDE8F08F21F003012144914221DB6B
:10453000C36882680C46D3609A60DEE7D8F804202E
:1045400008EB050102F00102154343F001020B44A0
:10455000C8F804504A605A6842F0010208315A60B3
:10456000484602F0BBFDD7E7114603B0BDE8F04F67
:10457000FFF7AEBB1EF0010F7FF45AAF56F8083CB0
:10458000C3EB080ADAF8043023F0030C01EB0C0E3D
:1045900096458BDBC36882685746D3609A6057F8AC
:1045A000081FDAF80C30CB60221F242A996000F231
:1045B0009980132A62D93368CAF808307368CAF838
:1045C0000C301B2A00F2A08008360AF1100356E0D6
:1045D00021F0030BA34405F11000834559DA1EF0C6
:1045E000010F7FF425AF56F8081CC1EB080ADAF872
:1045F000041021F0030CE34458453FF757AF5746EA
:10460000DAF80C1057F8080F221F242AC1608860BE
:1046100000F2B480132A40F2A5803168CAF808106D
:104620007168CAF80C101B2A00F2AF8008360AF134
:1046300010023168116071685160B16891600AEBD5
:104640000501C5EB0B0242F0010299604A60DAF8FD
:10465000043003F001031D434846CAF80450FFF735
:10466000B9FE38465CE733680360736843601B2A11
:1046700027D800F1080306F10802F2E63B4632684B
:104680001A6072685A60B2689A603E467446D046B4
:1046900033E708EB0501C5EB0B0B4BF0010299600A
:1046A0004A6056F8043C03F001031D43484646F8AF
:1046B000045CFFF78FFE304632E73146FFF7D6FD48
:1046C000D5E6B3688360F368C360242A28D000F17C
:1046D000100306F11002C4E650F8043C23F0030373
:1046E0001C440AE7314638467446D046FFF7BEFD03
:1046F0003E4602E73A46F7E6314638461C46D04683
:10470000FFF7B4FD3E46F8E6B368CAF81030F36828
:10471000CAF81430242A1BD010360AF11803AEE769
:10472000336903617369436106F1180200F11803EC
:1047300097E600BF708DFF1FB168CAF81010F168CE
:10474000CAF81410242A0FD010360AF11802CBE64A
:104750003369CAF818307369CAF81C3018360AF180
:1047600020038CE73A4664E73269CAF81820726978
:10477000CAF81C2018360AF12002B5E63146384640
:104780000193FFF773FD019B59E7B168CAF8101058
:10479000F168CAF81410242A03D010360AF118025E
:1047A00047E73269CAF818207269CAF81C2018361F
:1047B0000AF120023DE700BF38B5074C002305464B
:1047C00008462360FDF746F9431C00D038BD236836
:1047D000002BFBD02B6038BD4895FF1F0EB4F0B501
:1047E0009CB021AB0F4953F8042B019305466FF0A1
:1047F0000044086802954FF402774FF6FF7602A94D
:104800000695ADF8147004940794ADF8166000F0A6
:1048100085F8029B00221A701CB0BDE8F04003B07E
:10482000704700BF008CFF1FFFFFFFFFFFFFFFFF70
:10483000FFFFFFFFFFFFFFFFFFFFFFFFFFFFFFFF88
:1048400090F800F06DE9024520F007016FF0000CD0
:1048500010F0070491F820F040F049804FF0000478
:104860006FF00700D1E9002391F840F000F1080053
:1048700082FA4CF2A4FA8CF283FA4CF3A2FA8CF38B
:104880004BBBD1E9022382FA4CF200F10800A4FAF2
:104890008CF283FA4CF3A2FA8CF3E3B9D1E9042346
:1048A00082FA4CF200F10800A4FA8CF283FA4CF37D
:1048B000A2FA8CF37BB9D1E9062301F1200182FA37
:1048C0004CF200F10800A4FA8CF283FA4CF3A2FA3D
:1048D0008CF3002BC6D0002A04BF04301A4612BA4B
:1048E000B2FA82F2FDE8024500EBD2007047D1E94E
:1048F000002304F00305C4F100004FEAC50514F0DD
:10490000040F91F840F00CFA05F562EA05021CBFAD
:1049100063EA050362464FF00004A9E72DE9F04F72
:10492000C1B00C46099115460E930A9002F0BEFCE8
:10493000036817931846FFF783FFA38916901E0696
:1049400003D52369002B01F01A8100231A46129324
:104950002593249319930B93DFF864A4149230AB3E
:10496000239399461592A84698F800304446EBB137
:10497000252B02D11AE0252B03D014F8013F002B80
:10498000F9D1C8EB04058DB1249B259AC9F80080A4
:1049900001332A44072BC9F804502592249300F3CD
:1049A000A68009F108090B9B2B440B932378002B5D
:1049B00000F0A68000231A468DF86F3019460C933C
:1049C00007934FF0FF3B637804F101085D4608F15F
:1049D0000108A3F12000582800F22584DFE810F038
:1049E00088032304230490032304230423042304BF
:1049F000230423049703A50323045D00E20023049A
:104A0000FE0005010501050105010501050105017E
:104A100005010501230423042304230423042304A0
:104A200023042304230423041501810223048102A7
:104A30002304230423042304C60223042304CD02F5
:104A400023042304230423042304F702230423045C
:104A5000250323042304230423042304230423041D
:104A60002304230423046603790381028102810263
:104A70008103790323042304D1032304DB03A3006C
:104A80006400EE032304F5032304AA032304230490
:104A9000BC030C980E9340420C90079B43F0040318
:104AA000079398F8003092E70E98AB46002104680F
:104AB0008DF86F10071D0798302378228B458DF8ED
:104AC00070304FF000058DF8712040F00203C0F205
:104AD000C78320F0800343F00203079354EA0503E1
:104AE0000E9700F093830F461192B348CEE223AAAB
:104AF00009990A9802F04AFF48B90DF1C00952E736
:104B0000259B23B10A98099923AA02F03FFF099B2C
:104B10009B8913F0400F0B9B18BF4FF0FF331846D3
:104B200041B0BDE8F08F1193AB46002A41F03382CB
:104B3000079A12F0200300F02E820E9F073727F00D
:104B40000703002703F10801BB450E91D3E9004597
:104B50008DF86F70C0F2798722F08003079354EAD2
:104B6000050300F0758330AEE20842EA4572E908B9
:104B700004F007030D461446303354EA050206F8E4
:104B8000013DF1D1079AD10740F18480302B00F02C
:104B900081803022731E06F8012C30AAD21A0D92A1
:104BA0001E467AE098F800302A2B08F1010401F043
:104BB000B981A3F13000092898BF002501F26C816A
:104BC00014F8013B05EB850500EB4505A3F130002A
:104BD0000928F5D945EAE575A046FAE6079B43F0B2
:104BE0008003079398F80030F1E6A3F1300000232A
:104BF0001C4618F8013B04EB840400EB4404A3F1C9
:104C000030000928F5D90C94E3E61193AB46002A4D
:104C100041F0AB81079B43F010030793079B980675
:104C200040F130850E9F073727F00707D7E90023AB
:104C300007F108010E9114461D46002A73F1000386
:104C4000C0F25B85BBF1000F9DF86F70C0F2388534
:104C5000079B23F08003079354EA050300F0DB81F0
:104C6000002D08BF0A2CC0F0DB8130AE204629465B
:104C70000A22002302F0E4FF303206F8012D20461C
:104C8000294600230A2202F0DBFF04460D4654EABF
:104C90000503EBD130AB9B1B0D930D9B5B45B8BF60
:104CA0005B4608930023139317B1089B01330893C5
:104CB000079B13F002030F9302D0089B0233089363
:104CC000079B13F08403109340F0D7820C9B089A43
:104CD0009D1A002D40F3D182102D2599249A374F2B
:104CE00027DD189648461024B946099E2F460A9D8E
:104CF00004E0103F102F00F1080016DD01322F4BA9
:104D000024921031072A259180E81800F1DD23AAAA
:104D10003146284602F03AFE00287FF4F8AE103FF4
:104D2000102F2599249A30A8E8DC189E3D464F465E
:104D3000814601326C18072A25942492C9F8007024
:104D4000C9F8045000F328849DF86F7009F1080930
:104D500077B1249B013301340DF16F010122072B40
:104D60002594249389E8060000F3A08309F108093B
:104D70000F9B6BB1249B013302341CA90222072B29
:104D80002594249389E8060000F39C8309F108091F
:104D9000109B802B00F0D5820D9BC3EB0B07002FDF
:104DA00039DD074A249B0F92102F28DD22464FF051
:104DB000100B0A9D099C0AE0748400009484000092
:104DC00040840000103F102F09F1080916DD01335F
:104DD0001032072B2592249389E8000CF2DD23AAD8
:104DE0002146284602F0D2FD00287FF490AE103F05
:104DF000102F259A249B0DF1C009E8DC14460133DD
:104E00000F9A24933C44072B259489E8840000F3EF
:104E1000418309F10809079BDA0500F13082249BE0
:104E20000D99C9F8006001330C44072B2594C9F88B
:104E30000410249300F3188309F10809079B59070C
:104E40003FD50C9B089A9D1A002D3ADD102D249B0E
:104E5000BC4F23DD22461026DDF828B0099C04E073
:104E6000103D102D09F1080917DD0133B5492493D0
:104E70001032072B259289E84200F1DD23AA214652
:104E8000584602F083FD00287FF441AE103D102DFE
:104E9000259A249B0DF1C009E7DC144601332C440C
:104EA000072B25942493C9F80070C9F8045008DD35
:104EB00023AA09990A9802F069FD00287FF427AE19
:104EC000259C0B9B0C9A08998A42ACBF9B185B18D7
:104ED0000B93002C40F0D482002324930DF1C009E1
:104EE00042E51193AB46002A41F051800E9F0737EF
:104EF00027F0070303F108020E921A6814925B6808
:104F00001593159B149D23F00044284621464FF02D
:104F1000FF328D4BFEF790FE002840F0C2842846F9
:104F200021464FF0FF32884BFEF768FE002840F024
:104F3000B8841498159900220023FEF755FE002826
:104F400040F04F879DF86F70804E814B079921F09C
:104F500080010791119903224FF0000B0892472915
:104F6000D8BF1E460D92CDF84CB09DE6079B43F08E
:104F70000803079398F8003029E51193AB46002AFF
:104F800041F01180079B43F010030793079A12F03A
:104F900020037FF4D2AD079911F0100200F02C85A8
:104FA0000E988DF86F30BBF1000F046800F1040714
:104FB0004FF00005C0F248850A4622F080020792B1
:104FC00054EA05020E9700F043811F46CBE511938A
:104FD000AB46002A40F0E387079B43F0100307939A
:104FE000079A12F0200300F032830E9F073727F054
:104FF0000703002703F10801BB450E91D3E90045E3
:105000008DF86F70C0F25C8322F08003079354EA3E
:1050100005037FF425AEBBF1000F00F0FE800024F5
:1050200040AE303406F8414D34E61193AB46002AC9
:1050300040F09787079B47489D0640F197800E9F59
:10504000073727F00703D3E9004503F108020E9262
:10505000079A12F0010700F0418254EA050300F0BC
:1050600005859DF844208DF871200027079A8DF85A
:105070006F703023BB458DF8703042F00203C0F2F0
:10508000B58622F0800343F00203079330AE230974
:1050900004F00F0143EA05732A091C461546435CD8
:1050A00006F8013D54EA0503F1D1F3E50E99119399
:1050B0000A688DF8982000230A461F468DF86F3045
:1050C000043201230893BB4613970E920D9326AE2C
:1050D000EEE51193AB46002A3FF4A0AD8DF86F10BA
:1050E0009CE5079B43F04003079398F800306EE47B
:1050F00098F8003000297FF46AAC0122202166E490
:10510000079B43F00103079398F800305FE40E9C7F
:1051100023680C9318460028234603F10403FFF686
:10512000B8AC0E9398F8003051E498F800300122A2
:105130002B214CE41193AB46002A3FF451AF8DF87C
:105140006F104DE794840000FFFFEF7F5484000050
:1051500050840000608400001193AB46002A40F0A8
:105160002A87079B99489D063FF569AF079BDC0698
:1051700040F135840E9A1346043314680E930025CB
:1051800066E798F800306C2B00F0E284079840F056
:10519000100007901BE4002A40F00987079B9B063C
:1051A00040F106840E9A0B991368CD170846043215
:1051B00029460E92C3E90001FFF7D6BB079B43F0D7
:1051C0002003079398F8003001E40E9A11931668B3
:1051D00000248DF86F40171D002E00F0CD85002DA6
:1051E000C0F218852A462146304602F071F80028A0
:1051F00000F02A86831B0D93A34623EAE3730E97E0
:105200000893CDF84CB09DF86F704DE56F48119242
:10521000BBF1000F40F073815F464FF0000BCDF8FB
:1052200034B030AE39E51193002A40F0AC86119AC3
:10523000002A3FF465AC002301211F4608918DF838
:1052400098208DF86F309B4613930D9126AE2FE575
:10525000BBF1000F00F0038600270024002582E444
:105260005A480793119254EA05030E974FF000072E
:105270007FF40CAF0024002508E7259C68E5119B0E
:10528000652B40F3A9801498159900220023FEF79E
:10529000A1FC002800F03581249B4D4AC9F800206C
:1052A000013301340122072B25942493C9F80420EB
:1052B00000F3E88309F108091D9B129A934203DB6E
:1052C000079BDB077FF5BAAD249B1699179AC9F89F
:1052D000002001330C44072B2594C9F804102493B3
:1052E00000F3408409F10809129B5D1E002D7FF731
:1052F000A5AD384A249B0F92102D40F3E68110266D
:105300000A9FDDF824B005E009F10809103D102DD1
:1053100040F3DB8101331034072B25942493C9F823
:1053200000A0C9F80460EFDD23AA5946384602F010
:105330002DFB00287FF4EBAB259C249B0DF1C009CD
:10534000E4E70C9B089A9F1A002F7FF725AD214AAE
:10535000249B0F92102F2BDD4A462146B94610257B
:1053600037460A9C099E06E0A9F11009B9F1100F11
:1053700002F1080218DD01331031072B2591249327
:10538000C2F800A05560EFDD23AA3146204602F0A6
:10539000FDFA00287FF4BBABA9F11009B9F1100F99
:1053A0002599249B30AAE6DC3E460C464F469146A2
:1053B00001330F9A24933C44072B259489E88400F9
:1053C00000F3458209F10809E6E400BF7484000097
:1053D0009084000040840000129B249D012B40F328
:1053E0000882013501340123072D25942495C9F83D
:1053F0000060C9F8043000F30D8209F10809169A1B
:10540000179BC9F8003001351444072D25942495C5
:10541000C9F8042000F30E8209F10809002314984A
:1054200015990022FEF7D6FB129B002840F0C3809E
:10543000013B013501361C44072D24952594C9F8FC
:105440000060C9F8043000F3F58009F10809199AE1
:10545000C9F80420013514441FAB072D2594249569
:10546000C9F800307FF7E8AC23AA09990A9802F03E
:105470008DFA00287FF44BAB259C0DF1C009DDE4CB
:1054800023AA09990A9802F081FA00283FF424AD72
:10549000FFF73DBB23AA09990A9802F077FA002882
:1054A0007FF435AB259C0DF1C009B4E423AA09991A
:1054B0000A9802F06BFA00287FF429AB259C0DF1C5
:1054C000C00955E423AA09990A9802F05FFA002856
:1054D0007FF41DAB259C0DF1C00959E4BBF1000F11
:1054E0008DF86F70C0F2DA8222F08003079354EADD
:1054F00005037FF4CBADBBF1000F3FF48DAE002769
:10550000B8E61D9D002D40F3CC82139B129A934266
:10551000A8BF1346002B1D460DDD249BC9F8006073
:1055200001332C44072B2594C9F80450249300F32D
:10553000A38309F10809139B002DA8BF5B1B002B57
:105540001D4640F3F680BA4A249B0F92102D40F37B
:10555000808222461027DDF828B0099C05E009F179
:105560000809103D102D40F3738201331032072BD0
:1055700025922493C9F800A0C9F80470EFDD23AA8E
:105580002146584602F002FA00287FF4C0AA259A64
:10559000249B0DF1C009E4E723AA09990A9802F0B7
:1055A000F5F900287FF4B3AA9DF86F70259C0DF1E2
:1055B000C009FFF7CDBB5E1E002E7FF748AF9C4BA6
:1055C0000F93102E2CDDCDF834801027B046DDF877
:1055D00028B0099E06E0A8F11008B8F1100F09F1F3
:1055E00008091ADD01351034072D25942495C9F8D2
:1055F00000A0C9F80470EEDD23AA3146584602F037
:10560000C5F900287FF483AAA8F11008B8F1100F9B
:10561000259C249D0DF1C009E4DC4646DDF834806C
:105620000F9B01353444072D2594249589E84800C3
:105630007FF70BAF23AA09990A9802F0A7F900286F
:105640007FF465AA259C249D0DF1C009FFE607990A
:1056500011F0100200F008810E988DF86F30BBF148
:10566000000F046800F104074FF0000526DB0A462E
:1056700022F08002079254EA05020E971F467FF43B
:10568000EFAAC8E4079BD9062AD4079B5A0627D558
:105690000E99B1F900400431E51722462B460E91D0
:1056A000FFF7CBBA0E998DF86F30BBF1000F0C6885
:1056B00001F104074FF0000580F245820E971F4666
:1056C00054EA05037FF4CCAAAAE401330F9A249389
:1056D0002C44072B259489E824007FF7ADABC3E663
:1056E0000E9A146813460433E51722460E93002AD7
:1056F0002B4673F10003BFF6A5AA64424FF02D07B5
:1057000065EB4505BBF1000F8DF86F70FFF6A8AA99
:10571000079B23F080030793FFF7A2BA23AA0999F6
:105720000A9802F033F900287FF4F1A9259C0DF1C5
:10573000C009139A1D9B32441746129A934247DBC5
:10574000079AD50744D412990E44F51BCB1A9D42F3
:10575000A8BF1D46002D2E460DDD249AC9F8007005
:1057600001322C44072A2594C9F80450249200F3EE
:10577000128309F10809002EACBF9D1B1D46002DA8
:105780007FF75CAB2A4A249B0F92102D9DDD1026DB
:105790000A9FDDF824B004E009F10809103D102D3E
:1057A00093DD01331034072B25942493C9F800A00E
:1057B000C9F80460F0DD23AA5946384602F0E6F83D
:1057C00000287FF4A4A9259C249B0DF1C009E5E7DE
:1057D000249A16981799C9F8001001320444072A30
:1057E0002594C9F80400249200F3A58209F1080960
:1057F000A9E7079BD8073FF5F4AD01350134012334
:10580000072D25942495C9F80060C9F804307FF766
:105810001CAE0FE723AA09990A9802F0B7F80028EE
:105820007FF475A9259C249D0DF1C009E7E500BF13
:105830004084000023AA09990A9802F0A7F80028DA
:105840007FF465A9259C249D0DF1C009E6E523AAF6
:1058500009990A9802F09AF800287FF458A9259C23
:105860000DF1C009FFF798BA079911F040033FF412
:1058700019AF0E988DF86F200346BBF1000F03F1AE
:10588000040304884FF00005C0F2B98121F08001C3
:10589000079154EA05010E9317467FF4E1A9FFF73B
:1058A000BABB149C22462046159C23462146FEF78F
:1058B000C3F9002840F01583119BBBF1FF3F23F093
:1058C00020030D9300F07682472B00F09281079B16
:1058D00043F480731093159B1F1E149B0893BBBF4A
:1058E0003B4603F1004700232D230F93119B662BAA
:1058F00000F06382462B00F05E810D9B089A452BD9
:1059000021A81EA90CBF0BF101055D46049003916F
:105910001DA802213B460290019500910A9800F0D3
:105920004FFC119B672B064640F07D82079BDA07F0
:1059300040F1BF8274190898394600220023FEF70F
:1059400049F9002840F0A481219B9C4206D93021CE
:105950005A1C21921970219B9C42F9D89B1B1293CF
:105960000D9B472B00F08181119B652B40F36A82D0
:10597000119B662B1D9B139300F04782139A12997B
:105980008A42C0F23682079BD90700F1898222EA57
:10599000E2730D92672211920F9A002A40F05B8108
:1059A0000893109B079393469DF86F70FFF77CB99F
:1059B000079BDF060BD4079B5E0608D50E9A13687B
:1059C00004320E92BDF82C201A80FEF7CDBF0E9A3D
:1059D000136804320E920B9A1A60FEF7C5BF079B3C
:1059E0000E9A13F0400F134600F00E810433148812
:1059F0000E930025FFF72CBB079911F0400317D039
:105A00000E988DF86F200346BBF1000F03F10403DD
:105A100004884FF00005C0F2F58021F08001079165
:105A200054EA05010E933FF413AC1746FFF79BB8F9
:105A30000E998DF86F30BBF1000F0C6801F104076F
:105A40004FF0000580F281800E970027FFF78BB89A
:105A5000144601330F9A24932C44072B259489E88C
:105A600024003FF75BAE09F1080962E60027BB4559
:105A70008DF86F70FFF6FEAB079B23F08003079352
:105A8000FFF7C6BB23AA09990A9801F07FFF0028F7
:105A90007FF43DA8259C0DF1C0090DE40E9FFFF792
:105AA000E2BB249BB14AC9F8002001330134012232
:105AB000072B25942493C9F804206FDC09F1080909
:105AC0002DB9129B1BB9079BDF077FF5B7A9249B54
:105AD0001699179AC9F8002001330C44072B259416
